{
  "address": "0x121E4E07d13F7F64ae953667457b76BB0D450b26",
  "abi": [
    {
      "inputs": [
        {
          "internalType": "address",
          "name": "_owner",
          "type": "address"
        }
      ],
      "stateMutability": "nonpayable",
      "type": "constructor"
    },
    {
      "anonymous": false,
      "inputs": [
        {
          "indexed": true,
          "internalType": "uint256",
          "name": "id",
          "type": "uint256"
        },
        {
          "indexed": true,
          "internalType": "address",
          "name": "user",
          "type": "address"
        },
        {
          "indexed": false,
          "internalType": "string",
          "name": "location",
          "type": "string"
        },
        {
          "indexed": false,
          "internalType": "uint256",
          "name": "timestamp",
          "type": "uint256"
        }
      ],
      "name": "DataStored",
      "type": "event"
    },
    {
      "anonymous": false,
      "inputs": [
        {
          "indexed": false,
          "internalType": "address",
          "name": "userAddress",
          "type": "address"
        },
        {
          "indexed": false,
          "internalType": "address",
          "name": "relayerAddress",
          "type": "address"
        },
        {
          "indexed": false,
          "internalType": "bytes",
          "name": "functionSignature",
          "type": "bytes"
        }
      ],
      "name": "MetaTransactionExecuted",
      "type": "event"
    },
    {
      "inputs": [
        {
          "internalType": "uint256",
          "name": "",
          "type": "uint256"
        }
      ],
      "name": "dataEntries",
      "outputs": [
        {
          "internalType": "uint256",
          "name": "id",
          "type": "uint256"
        },
        {
          "internalType": "address",
          "name": "user",
          "type": "address"
        },
        {
          "internalType": "uint256",
          "name": "timestamp",
          "type": "uint256"
        },
        {
          "internalType": "string",
          "name": "location",
          "type": "string"
        }
      ],
      "stateMutability": "view",
      "type": "function"
    },
    {
      "inputs": [
        {
          "internalType": "address",
          "name": "userAddress",
          "type": "address"
        },
        {
          "internalType": "bytes",
          "name": "functionSignature",
          "type": "bytes"
        },
        {
          "internalType": "bytes32",
          "name": "sigR",
          "type": "bytes32"
        },
        {
          "internalType": "bytes32",
          "name": "sigS",
          "type": "bytes32"
        },
        {
          "internalType": "uint8",
          "name": "sigV",
          "type": "uint8"
        }
      ],
      "name": "executeMetaTransaction",
      "outputs": [
        {
          "internalType": "bytes",
          "name": "",
          "type": "bytes"
        }
      ],
      "stateMutability": "nonpayable",
      "type": "function"
    },
    {
      "inputs": [],
      "name": "getDataEntries",
      "outputs": [
        {
          "components": [
            {
              "internalType": "uint256",
              "name": "id",
              "type": "uint256"
            },
            {
              "internalType": "address",
              "name": "user",
              "type": "address"
            },
            {
              "internalType": "uint256",
              "name": "timestamp",
              "type": "uint256"
            },
            {
              "internalType": "string",
              "name": "location",
              "type": "string"
            }
          ],
          "internalType": "struct DataContract.DataEntry[]",
          "name": "",
          "type": "tuple[]"
        }
      ],
      "stateMutability": "view",
      "type": "function"
    },
    {
      "inputs": [
        {
          "internalType": "address",
          "name": "user",
          "type": "address"
        }
      ],
      "name": "getDataEntriesByUser",
      "outputs": [
        {
          "components": [
            {
              "internalType": "uint256",
              "name": "id",
              "type": "uint256"
            },
            {
              "internalType": "address",
              "name": "user",
              "type": "address"
            },
            {
              "internalType": "uint256",
              "name": "timestamp",
              "type": "uint256"
            },
            {
              "internalType": "string",
              "name": "location",
              "type": "string"
            }
          ],
          "internalType": "struct DataContract.DataEntry[]",
          "name": "",
          "type": "tuple[]"
        }
      ],
      "stateMutability": "view",
      "type": "function"
    },
    {
      "inputs": [
        {
          "internalType": "uint256",
          "name": "index",
          "type": "uint256"
        }
      ],
      "name": "getDataEntryByIndex",
      "outputs": [
        {
          "components": [
            {
              "internalType": "uint256",
              "name": "id",
              "type": "uint256"
            },
            {
              "internalType": "address",
              "name": "user",
              "type": "address"
            },
            {
              "internalType": "uint256",
              "name": "timestamp",
              "type": "uint256"
            },
            {
              "internalType": "string",
              "name": "location",
              "type": "string"
            }
          ],
          "internalType": "struct DataContract.DataEntry",
          "name": "",
          "type": "tuple"
        }
      ],
      "stateMutability": "view",
      "type": "function"
    },
    {
      "inputs": [],
      "name": "nextId",
      "outputs": [
        {
          "internalType": "uint256",
          "name": "",
          "type": "uint256"
        }
      ],
      "stateMutability": "view",
      "type": "function"
    },
    {
      "inputs": [
        {
          "internalType": "address",
          "name": "",
          "type": "address"
        }
      ],
      "name": "nonces",
      "outputs": [
        {
          "internalType": "uint256",
          "name": "",
          "type": "uint256"
        }
      ],
      "stateMutability": "view",
      "type": "function"
    },
    {
      "inputs": [],
      "name": "owner",
      "outputs": [
        {
          "internalType": "address",
          "name": "",
          "type": "address"
        }
      ],
      "stateMutability": "view",
      "type": "function"
    },
    {
      "inputs": [
        {
          "internalType": "address",
          "name": "user",
          "type": "address"
        },
        {
          "internalType": "string",
          "name": "location",
          "type": "string"
        }
      ],
      "name": "storeData",
      "outputs": [],
      "stateMutability": "nonpayable",
      "type": "function"
    },
    {
      "inputs": [
        {
          "internalType": "address",
          "name": "user",
          "type": "address"
        },
        {
          "internalType": "bool",
          "name": "isWhitelisted",
          "type": "bool"
        }
      ],
      "name": "updateWhitelist",
      "outputs": [],
      "stateMutability": "nonpayable",
      "type": "function"
    },
    {
      "inputs": [
        {
          "internalType": "address",
          "name": "",
          "type": "address"
        },
        {
          "internalType": "uint256",
          "name": "",
          "type": "uint256"
        }
      ],
      "name": "userEntries",
      "outputs": [
        {
          "internalType": "uint256",
          "name": "",
          "type": "uint256"
        }
      ],
      "stateMutability": "view",
      "type": "function"
    },
    {
      "inputs": [
        {
          "internalType": "address",
          "name": "",
          "type": "address"
        }
      ],
      "name": "whitelist",
      "outputs": [
        {
          "internalType": "bool",
          "name": "",
          "type": "bool"
        }
      ],
      "stateMutability": "view",
      "type": "function"
    }
  ],
  "transactionHash": "0x26318b02bf3cfff20b28fbebacce5b39d3a5504f94fc6193b08e643332267329",
  "args": [
    "0xE51911eDF2Cb192f2d667400A674F747abf10316"
  ],
  "numDeployments": 2,
  "solcInputHash": "d1f47f8cd5d9705eadee62cdb7348ace",
  "bytecode": "0x608060405234801561001057600080fd5b506040516117dc3803806117dc83398101604081905261002f9161019d565b6040518060400160405280600c81526020016b11185d1850dbdb9d1c9858dd60a21b815250604051806040016040528060018152602001601960f91b8152504660405180608001604052806052815260200161178a6052913980516020918201208451858301208451858401206040805194850193909352918301526060820152608081018290523060a082015260c00160408051808303601f1901815291905280516020909101206001908155600280546001600160a01b0319166001600160a01b038716908117909155600482905561010e945092509050610114565b506101cd565b6002546001600160a01b031633146101725760405162461bcd60e51b815260206004820152601660248201527f4e6f742074686520636f6e7472616374206f776e657200000000000000000000604482015260640160405180910390fd5b6001600160a01b03919091166000908152600560205260409020805460ff1916911515919091179055565b6000602082840312156101af57600080fd5b81516001600160a01b03811681146101c657600080fd5b9392505050565b6115ae806101dc6000396000f3fe608060405234801561001057600080fd5b50600436106100b45760003560e01c80637ecebe00116100715780637ecebe00146101605780638da5cb5b146101805780639b19251a146101ab578063a131b2ea146101de578063d242d7af146101fe578063ffad0c8f1461021157600080fd5b80630b913af0146100b95780630c53c51c146100df5780630d392cd9146100ff57806317f6100614610114578063325f46581461013457806361b8ce8c14610157575b600080fd5b6100cc6100c7366004610f44565b610219565b6040519081526020015b60405180910390f35b6100f26100ed366004610ffa565b61024a565b6040516100d691906110da565b61011261010d3660046110f4565b61041e565b005b610127610122366004611130565b61049c565b6040516100d6919061118e565b6101476101423660046111f0565b6106a7565b6040516100d69493929190611209565b6100cc60045481565b6100cc61016e366004611130565b60006020819052908152604090205481565b600254610193906001600160a01b031681565b6040516001600160a01b0390911681526020016100d6565b6101ce6101b9366004611130565b60056020526000908152604090205460ff1681565b60405190151581526020016100d6565b6101f16101ec3660046111f0565b610779565b6040516100d69190611240565b61011261020c366004611253565b6108fc565b610127610ae3565b6006602052816000526040600020818154811061023557600080fd5b90600052602060002001600091509150505481565b60408051606081810183526001600160a01b03881660008181526020818152908590205484528301529181018690526102868782878787610bff565b6102e15760405162461bcd60e51b815260206004820152602160248201527f5369676e657220616e64207369676e617475726520646f206e6f74206d6174636044820152600d60fb1b60648201526084015b60405180910390fd5b6001600160a01b038716600090815260208190526040812080546001929061030a9084906112cb565b909155505060405160009081903090610329908a908c906020016112e4565b60408051601f19818403018152908290526103439161131b565b6000604051808303816000865af19150503d8060008114610380576040519150601f19603f3d011682016040523d82523d6000602084013e610385565b606091505b5091509150816103d75760405162461bcd60e51b815260206004820152601c60248201527f46756e6374696f6e2063616c6c206e6f74207375636365737366756c0000000060448201526064016102d8565b7f5845892132946850460bff5a0083f71031bc5bf9aadcd40f1de79423eac9b10b89338a60405161040a93929190611337565b60405180910390a198975050505050505050565b6002546001600160a01b031633146104715760405162461bcd60e51b81526020600482015260166024820152752737ba103a34329031b7b73a3930b1ba1037bbb732b960511b60448201526064016102d8565b6001600160a01b03919091166000908152600560205260409020805460ff1916911515919091179055565b6001600160a01b038116600090815260066020526040812080546060929067ffffffffffffffff8111156104d2576104d2610f6e565b60405190808252806020026020018201604052801561053757816020015b61052460405180608001604052806000815260200160006001600160a01b0316815260200160008152602001606081525090565b8152602001906001900390816104f05790505b50905060005b825481101561069f576003600184838154811061055c5761055c61136c565b90600052602060002001546105719190611382565b815481106105815761058161136c565b9060005260206000209060040201604051806080016040529081600082015481526020016001820160009054906101000a90046001600160a01b03166001600160a01b03166001600160a01b03168152602001600282015481526020016003820180546105ed90611395565b80601f016020809104026020016040519081016040528092919081815260200182805461061990611395565b80156106665780601f1061063b57610100808354040283529160200191610666565b820191906000526020600020905b81548152906001019060200180831161064957829003601f168201915b5050505050815250508282815181106106815761068161136c565b60200260200101819052508080610697906113cf565b91505061053d565b509392505050565b600381815481106106b757600080fd5b600091825260209091206004909102018054600182015460028301546003840180549395506001600160a01b039092169390929091906106f690611395565b80601f016020809104026020016040519081016040528092919081815260200182805461072290611395565b801561076f5780601f106107445761010080835404028352916020019161076f565b820191906000526020600020905b81548152906001019060200180831161075257829003601f168201915b5050505050905084565b6107ad60405180608001604052806000815260200160006001600160a01b0316815260200160008152602001606081525090565b60035482106107f45760405162461bcd60e51b8152602060048201526013602482015272496e646578206f7574206f6620626f756e647360681b60448201526064016102d8565b600382815481106108075761080761136c565b9060005260206000209060040201604051806080016040529081600082015481526020016001820160009054906101000a90046001600160a01b03166001600160a01b03166001600160a01b031681526020016002820154815260200160038201805461087390611395565b80601f016020809104026020016040519081016040528092919081815260200182805461089f90611395565b80156108ec5780601f106108c1576101008083540402835291602001916108ec565b820191906000526020600020905b8154815290600101906020018083116108cf57829003601f168201915b5050505050815250509050919050565b6001600160a01b038216600090815260056020526040902054829060ff166109585760405162461bcd60e51b815260206004820152600f60248201526e139bdd081dda1a5d195b1a5cdd1959608a1b60448201526064016102d8565b604080516080810182526004805482526001600160a01b0380871660208401908152429484019485526060840187815260038054600181018255600091909152855194027fc2575a0e9e593c00f959f8c92f12db2869c3395a3b0502d05e2516446f71f85b810194855591517fc2575a0e9e593c00f959f8c92f12db2869c3395a3b0502d05e2516446f71f85c83018054919094166001600160a01b03199091161790925593517fc2575a0e9e593c00f959f8c92f12db2869c3395a3b0502d05e2516446f71f85d85015551919283927fc2575a0e9e593c00f959f8c92f12db2869c3395a3b0502d05e2516446f71f85e90910190610a579082611437565b5050506001600160a01b0384166000818152600660209081526040808320600480548254600181018455928652939094200191909155905490517fa0a657e7f60506696effe14a3b70c834a3b0981efed9df294b9f3e4a21a8163090610ac090879042906114f7565b60405180910390a360048054906000610ad8836113cf565b919050555050505050565b60606003805480602002602001604051908101604052809291908181526020016000905b82821015610bf657600084815260209081902060408051608081018252600486029092018054835260018101546001600160a01b031693830193909352600283015490820152600382018054919291606084019190610b6590611395565b80601f0160208091040260200160405190810160405280929190818152602001828054610b9190611395565b8015610bde5780601f10610bb357610100808354040283529160200191610bde565b820191906000526020600020905b815481529060010190602001808311610bc157829003601f168201915b50505050508152505081526020019060010190610b07565b50505050905090565b600080610c0b86610c47565b90506000610c1882610cc4565b9050610c2681858888610cef565b6001600160a01b0316886001600160a01b0316149250505095945050505050565b60006040518060800160405280604981526020016115306049913980516020918201208351848301516040808701518051908601209051610ca7950193845260208401929092526001600160a01b03166040830152606082015260800190565b604051602081830303815290604052805190602001209050919050565b60015460405161190160f01b6020820152602281019190915260428101829052600090606201610ca7565b6000806000610d0087878787610d17565b91509150610d0d81610ddb565b5095945050505050565b6000807f7fffffffffffffffffffffffffffffff5d576e7357a4501ddfe92f46681b20a0831115610d4e5750600090506003610dd2565b6040805160008082526020820180845289905260ff881692820192909252606081018690526080810185905260019060a0016020604051602081039080840390855afa158015610da2573d6000803e3d6000fd5b5050604051601f1901519150506001600160a01b038116610dcb57600060019250925050610dd2565b9150600090505b94509492505050565b6000816004811115610def57610def611519565b03610df75750565b6001816004811115610e0b57610e0b611519565b03610e585760405162461bcd60e51b815260206004820152601860248201527f45434453413a20696e76616c6964207369676e6174757265000000000000000060448201526064016102d8565b6002816004811115610e6c57610e6c611519565b03610eb95760405162461bcd60e51b815260206004820152601f60248201527f45434453413a20696e76616c6964207369676e6174757265206c656e6774680060448201526064016102d8565b6003816004811115610ecd57610ecd611519565b03610f255760405162461bcd60e51b815260206004820152602260248201527f45434453413a20696e76616c6964207369676e6174757265202773272076616c604482015261756560f01b60648201526084016102d8565b50565b80356001600160a01b0381168114610f3f57600080fd5b919050565b60008060408385031215610f5757600080fd5b610f6083610f28565b946020939093013593505050565b634e487b7160e01b600052604160045260246000fd5b600067ffffffffffffffff80841115610f9f57610f9f610f6e565b604051601f8501601f19908116603f01168101908282118183101715610fc757610fc7610f6e565b81604052809350858152868686011115610fe057600080fd5b858560208301376000602087830101525050509392505050565b600080600080600060a0868803121561101257600080fd5b61101b86610f28565b9450602086013567ffffffffffffffff81111561103757600080fd5b8601601f8101881361104857600080fd5b61105788823560208401610f84565b9450506040860135925060608601359150608086013560ff8116811461107c57600080fd5b809150509295509295909350565b60005b838110156110a557818101518382015260200161108d565b50506000910152565b600081518084526110c681602086016020860161108a565b601f01601f19169290920160200192915050565b6020815260006110ed60208301846110ae565b9392505050565b6000806040838503121561110757600080fd5b61111083610f28565b91506020830135801515811461112557600080fd5b809150509250929050565b60006020828403121561114257600080fd5b6110ed82610f28565b8051825260018060a01b03602082015116602083015260408101516040830152600060608201516080606085015261118660808501826110ae565b949350505050565b6000602080830181845280855180835260408601915060408160051b870101925083870160005b828110156111e357603f198886030184526111d185835161114b565b945092850192908501906001016111b5565b5092979650505050505050565b60006020828403121561120257600080fd5b5035919050565b84815260018060a01b038416602082015282604082015260806060820152600061123660808301846110ae565b9695505050505050565b6020815260006110ed602083018461114b565b6000806040838503121561126657600080fd5b61126f83610f28565b9150602083013567ffffffffffffffff81111561128b57600080fd5b8301601f8101851361129c57600080fd5b6112ab85823560208401610f84565b9150509250929050565b634e487b7160e01b600052601160045260246000fd5b808201808211156112de576112de6112b5565b92915050565b600083516112f681846020880161108a565b60609390931b6bffffffffffffffffffffffff19169190920190815260140192915050565b6000825161132d81846020870161108a565b9190910192915050565b6001600160a01b03848116825283166020820152606060408201819052600090611363908301846110ae565b95945050505050565b634e487b7160e01b600052603260045260246000fd5b818103818111156112de576112de6112b5565b600181811c908216806113a957607f821691505b6020821081036113c957634e487b7160e01b600052602260045260246000fd5b50919050565b6000600182016113e1576113e16112b5565b5060010190565b601f82111561143257600081815260208120601f850160051c8101602086101561140f5750805b601f850160051c820191505b8181101561142e5782815560010161141b565b5050505b505050565b815167ffffffffffffffff81111561145157611451610f6e565b6114658161145f8454611395565b846113e8565b602080601f83116001811461149a57600084156114825750858301515b600019600386901b1c1916600185901b17855561142e565b600085815260208120601f198616915b828110156114c9578886015182559484019460019091019084016114aa565b50858210156114e75787850151600019600388901b60f8161c191681555b5050505050600190811b01905550565b60408152600061150a60408301856110ae565b90508260208301529392505050565b634e487b7160e01b600052602160045260246000fdfe4d6574615472616e73616374696f6e5374727563742875696e74323536206e6f6e63652c616464726573732066726f6d2c62797465732066756e6374696f6e5369676e617475726529a26469706673582212208d15e9f388600ab94a65e1390638e401bb0dff688e85212348c5e934c1dd570a64736f6c63430008110033454950373132446f6d61696e28737472696e67206e616d652c737472696e672076657273696f6e2c75696e7432353620636861696e49642c6164647265737320766572696679696e67436f6e747261637429",
  "devdoc": {
    "kind": "dev",
    "methods": {},
    "version": 1
  },
  "userdoc": {
    "kind": "user",
    "methods": {},
    "version": 1
  },
  "storageLayout": {
    "storage": [
      {
        "astId": 1653,
        "contract": "contracts/DataContract.sol:DataContract",
        "label": "nonces",
        "offset": 0,
        "slot": "0",
        "type": "t_mapping(t_address,t_uint256)"
      },
      {
        "astId": 1671,
        "contract": "contracts/DataContract.sol:DataContract",
        "label": "domainSeparator",
        "offset": 0,
        "slot": "1",
        "type": "t_bytes32"
      },
      {
        "astId": 1420,
        "contract": "contracts/DataContract.sol:DataContract",
        "label": "owner",
        "offset": 0,
        "slot": "2",
        "type": "t_address"
      },
      {
        "astId": 1424,
        "contract": "contracts/DataContract.sol:DataContract",
        "label": "dataEntries",
        "offset": 0,
        "slot": "3",
        "type": "t_array(t_struct(DataEntry)1418_storage)dyn_storage"
      },
      {
        "astId": 1426,
        "contract": "contracts/DataContract.sol:DataContract",
        "label": "nextId",
        "offset": 0,
        "slot": "4",
        "type": "t_uint256"
      },
      {
        "astId": 1430,
        "contract": "contracts/DataContract.sol:DataContract",
        "label": "whitelist",
        "offset": 0,
        "slot": "5",
        "type": "t_mapping(t_address,t_bool)"
      },
      {
        "astId": 1435,
        "contract": "contracts/DataContract.sol:DataContract",
        "label": "userEntries",
        "offset": 0,
        "slot": "6",
        "type": "t_mapping(t_address,t_array(t_uint256)dyn_storage)"
      }
    ],
    "types": {
      "t_address": {
        "encoding": "inplace",
        "label": "address",
        "numberOfBytes": "20"
      },
      "t_array(t_struct(DataEntry)1418_storage)dyn_storage": {
        "base": "t_struct(DataEntry)1418_storage",
        "encoding": "dynamic_array",
        "label": "struct DataContract.DataEntry[]",
        "numberOfBytes": "32"
      },
      "t_array(t_uint256)dyn_storage": {
        "base": "t_uint256",
        "encoding": "dynamic_array",
        "label": "uint256[]",
        "numberOfBytes": "32"
      },
      "t_bool": {
        "encoding": "inplace",
        "label": "bool",
        "numberOfBytes": "1"
      },
      "t_bytes32": {
        "encoding": "inplace",
        "label": "bytes32",
        "numberOfBytes": "32"
      },
      "t_mapping(t_address,t_array(t_uint256)dyn_storage)": {
        "encoding": "mapping",
        "key": "t_address",
        "label": "mapping(address => uint256[])",
        "numberOfBytes": "32",
        "value": "t_array(t_uint256)dyn_storage"
      },
      "t_mapping(t_address,t_bool)": {
        "encoding": "mapping",
        "key": "t_address",
        "label": "mapping(address => bool)",
        "numberOfBytes": "32",
        "value": "t_bool"
      },
      "t_mapping(t_address,t_uint256)": {
        "encoding": "mapping",
        "key": "t_address",
        "label": "mapping(address => uint256)",
        "numberOfBytes": "32",
        "value": "t_uint256"
      },
      "t_string_storage": {
        "encoding": "bytes",
        "label": "string",
        "numberOfBytes": "32"
      },
      "t_struct(DataEntry)1418_storage": {
        "encoding": "inplace",
        "label": "struct DataContract.DataEntry",
        "members": [
          {
            "astId": 1411,
            "contract": "contracts/DataContract.sol:DataContract",
            "label": "id",
            "offset": 0,
            "slot": "0",
            "type": "t_uint256"
          },
          {
            "astId": 1413,
            "contract": "contracts/DataContract.sol:DataContract",
            "label": "user",
            "offset": 0,
            "slot": "1",
            "type": "t_address"
          },
          {
            "astId": 1415,
            "contract": "contracts/DataContract.sol:DataContract",
            "label": "timestamp",
            "offset": 0,
            "slot": "2",
            "type": "t_uint256"
          },
          {
            "astId": 1417,
            "contract": "contracts/DataContract.sol:DataContract",
            "label": "location",
            "offset": 0,
            "slot": "3",
            "type": "t_string_storage"
          }
        ],
        "numberOfBytes": "128"
      },
      "t_uint256": {
        "encoding": "inplace",
        "label": "uint256",
        "numberOfBytes": "32"
      }
    }
  }
}